{
  "contractName": "Marketplace",
  "abi": [
    {
      "anonymous": false,
      "inputs": [
        {
          "indexed": false,
          "internalType": "uint256",
          "name": "id",
          "type": "uint256"
        },
        {
          "indexed": false,
          "internalType": "string",
          "name": "name",
          "type": "string"
        },
        {
          "indexed": false,
          "internalType": "uint256",
          "name": "price",
          "type": "uint256"
        },
        {
          "indexed": false,
          "internalType": "address",
          "name": "seller",
          "type": "address"
        }
      ],
      "name": "ProductCreated",
      "type": "event"
    },
    {
      "anonymous": false,
      "inputs": [
        {
          "indexed": false,
          "internalType": "uint256",
          "name": "id",
          "type": "uint256"
        },
        {
          "indexed": false,
          "internalType": "address",
          "name": "buyer",
          "type": "address"
        }
      ],
      "name": "ProductPurchased",
      "type": "event"
    },
    {
      "inputs": [
        {
          "internalType": "uint256",
          "name": "",
          "type": "uint256"
        }
      ],
      "name": "products",
      "outputs": [
        {
          "internalType": "uint256",
          "name": "id",
          "type": "uint256"
        },
        {
          "internalType": "string",
          "name": "name",
          "type": "string"
        },
        {
          "internalType": "uint256",
          "name": "price",
          "type": "uint256"
        },
        {
          "internalType": "address payable",
          "name": "seller",
          "type": "address"
        },
        {
          "internalType": "address",
          "name": "buyer",
          "type": "address"
        },
        {
          "internalType": "bool",
          "name": "isSold",
          "type": "bool"
        }
      ],
      "stateMutability": "view",
      "type": "function",
      "constant": true
    },
    {
      "inputs": [
        {
          "internalType": "address",
          "name": "",
          "type": "address"
        },
        {
          "internalType": "uint256",
          "name": "",
          "type": "uint256"
        }
      ],
      "name": "userPurchases",
      "outputs": [
        {
          "internalType": "uint256",
          "name": "",
          "type": "uint256"
        }
      ],
      "stateMutability": "view",
      "type": "function",
      "constant": true
    },
    {
      "inputs": [
        {
          "internalType": "string",
          "name": "_name",
          "type": "string"
        },
        {
          "internalType": "uint256",
          "name": "_price",
          "type": "uint256"
        }
      ],
      "name": "createProduct",
      "outputs": [],
      "stateMutability": "nonpayable",
      "type": "function"
    },
    {
      "inputs": [
        {
          "internalType": "uint256",
          "name": "_id",
          "type": "uint256"
        }
      ],
      "name": "purchaseProduct",
      "outputs": [],
      "stateMutability": "payable",
      "type": "function",
      "payable": true
    },
    {
      "inputs": [],
      "name": "getAvailableProducts",
      "outputs": [
        {
          "internalType": "uint256[]",
          "name": "",
          "type": "uint256[]"
        },
        {
          "internalType": "string[]",
          "name": "",
          "type": "string[]"
        },
        {
          "internalType": "uint256[]",
          "name": "",
          "type": "uint256[]"
        },
        {
          "internalType": "address[]",
          "name": "",
          "type": "address[]"
        }
      ],
      "stateMutability": "view",
      "type": "function",
      "constant": true
    },
    {
      "inputs": [],
      "name": "getMyPurchases",
      "outputs": [
        {
          "components": [
            {
              "internalType": "uint256",
              "name": "id",
              "type": "uint256"
            },
            {
              "internalType": "string",
              "name": "name",
              "type": "string"
            },
            {
              "internalType": "uint256",
              "name": "price",
              "type": "uint256"
            },
            {
              "internalType": "address payable",
              "name": "seller",
              "type": "address"
            },
            {
              "internalType": "address",
              "name": "buyer",
              "type": "address"
            },
            {
              "internalType": "bool",
              "name": "isSold",
              "type": "bool"
            }
          ],
          "internalType": "struct Marketplace.Product[]",
          "name": "",
          "type": "tuple[]"
        }
      ],
      "stateMutability": "view",
      "type": "function",
      "constant": true
    },
    {
      "inputs": [
        {
          "internalType": "uint256",
          "name": "_id",
          "type": "uint256"
        }
      ],
      "name": "getProductById",
      "outputs": [
        {
          "components": [
            {
              "internalType": "uint256",
              "name": "id",
              "type": "uint256"
            },
            {
              "internalType": "string",
              "name": "name",
              "type": "string"
            },
            {
              "internalType": "uint256",
              "name": "price",
              "type": "uint256"
            },
            {
              "internalType": "address payable",
              "name": "seller",
              "type": "address"
            },
            {
              "internalType": "address",
              "name": "buyer",
              "type": "address"
            },
            {
              "internalType": "bool",
              "name": "isSold",
              "type": "bool"
            }
          ],
          "internalType": "struct Marketplace.Product",
          "name": "",
          "type": "tuple"
        }
      ],
      "stateMutability": "view",
      "type": "function",
      "constant": true
    }
  ],
  "bytecode": "0x608060405234801561000f575f80fd5b50611fe48061001d5f395ff3fe60806040526004361061006f575f3560e01c80637acc0b201161004d5780637acc0b20146100f8578063cf2c033414610139578063e4a7118314610175578063e9300c6c1461019f5761006f565b80630ff4e2b41461007357806338e76a03146100a05780633f70c2b4146100bc575b5f80fd5b34801561007e575f80fd5b506100876101c7565b60405161009794939291906113a1565b60405180910390f35b6100ba60048036038101906100b5919061143b565b6105bf565b005b3480156100c7575f80fd5b506100e260048036038101906100dd919061143b565b610823565b6040516100ef9190611526565b60405180910390f35b348015610103575f80fd5b5061011e6004803603810190610119919061143b565b610a0a565b604051610130969594939291906115ca565b60405180910390f35b348015610144575f80fd5b5061015f600480360381019061015a919061165a565b610b21565b60405161016c9190611698565b60405180910390f35b348015610180575f80fd5b50610189610b4c565b60405161019691906117f2565b60405180910390f35b3480156101aa575f80fd5b506101c560048036038101906101c0919061193e565b610e24565b005b6060806060805f805b5f80549050811015610232575f81815481106101ef576101ee611998565b5b905f5260205f20906005020160040160149054906101000a900460ff1661021f57818061021b906119f2565b9250505b808061022a906119f2565b9150506101d0565b505f8167ffffffffffffffff81111561024e5761024d61181a565b5b60405190808252806020026020018201604052801561027c5781602001602082028036833780820191505090505b5090505f8267ffffffffffffffff81111561029a5761029961181a565b5b6040519080825280602002602001820160405280156102cd57816020015b60608152602001906001900390816102b85790505b5090505f8367ffffffffffffffff8111156102eb576102ea61181a565b5b6040519080825280602002602001820160405280156103195781602001602082028036833780820191505090505b5090505f8467ffffffffffffffff8111156103375761033661181a565b5b6040519080825280602002602001820160405280156103655781602001602082028036833780820191505090505b5090505f805b5f805490508110156105a6575f818154811061038a57610389611998565b5b905f5260205f20906005020160040160149054906101000a900460ff16610593575f81815481106103be576103bd611998565b5b905f5260205f2090600502015f01548683815181106103e0576103df611998565b5b6020026020010181815250505f81815481106103ff576103fe611998565b5b905f5260205f209060050201600101805461041990611a66565b80601f016020809104026020016040519081016040528092919081815260200182805461044590611a66565b80156104905780601f1061046757610100808354040283529160200191610490565b820191905f5260205f20905b81548152906001019060200180831161047357829003601f168201915b50505050508583815181106104a8576104a7611998565b5b60200260200101819052505f81815481106104c6576104c5611998565b5b905f5260205f209060050201600201548483815181106104e9576104e8611998565b5b6020026020010181815250505f818154811061050857610507611998565b5b905f5260205f2090600502016003015f9054906101000a900473ffffffffffffffffffffffffffffffffffffffff1683838151811061054a57610549611998565b5b602002602001019073ffffffffffffffffffffffffffffffffffffffff16908173ffffffffffffffffffffffffffffffffffffffff1681525050818061058f906119f2565b9250505b808061059e906119f2565b91505061036b565b5084848484995099509950995050505050505090919293565b5f805490508110610605576040517f08c379a00000000000000000000000000000000000000000000000000000000081526004016105fc90611ae0565b60405180910390fd5b5f80828154811061061957610618611998565b5b905f5260205f20906005020190508060040160149054906101000a900460ff1615610679576040517f08c379a000000000000000000000000000000000000000000000000000000000815260040161067090611b48565b60405180910390fd5b806002015434146106bf576040517f08c379a00000000000000000000000000000000000000000000000000000000081526004016106b690611bb0565b60405180910390fd5b806003015f9054906101000a900473ffffffffffffffffffffffffffffffffffffffff1673ffffffffffffffffffffffffffffffffffffffff166108fc3490811502906040515f60405180830381858888f19350505050158015610725573d5f803e3d5ffd5b5033816004015f6101000a81548173ffffffffffffffffffffffffffffffffffffffff021916908373ffffffffffffffffffffffffffffffffffffffff16021790555060018160040160146101000a81548160ff02191690831515021790555060015f3373ffffffffffffffffffffffffffffffffffffffff1673ffffffffffffffffffffffffffffffffffffffff1681526020019081526020015f2082908060018154018082558091505060019003905f5260205f20015f90919091909150557f9ad4ecfaf27ea0cbeebee0ed92fe15c8a84975f1e3d45ccfc526d7751dcf98ff8233604051610817929190611bce565b60405180910390a15050565b61082b611056565b5f805490508210610871576040517f08c379a000000000000000000000000000000000000000000000000000000000815260040161086890611ae0565b60405180910390fd5b5f828154811061088457610883611998565b5b905f5260205f2090600502016040518060c00160405290815f82015481526020016001820180546108b490611a66565b80601f01602080910402602001604051908101604052809291908181526020018280546108e090611a66565b801561092b5780601f106109025761010080835404028352916020019161092b565b820191905f5260205f20905b81548152906001019060200180831161090e57829003601f168201915b5050505050815260200160028201548152602001600382015f9054906101000a900473ffffffffffffffffffffffffffffffffffffffff1673ffffffffffffffffffffffffffffffffffffffff1673ffffffffffffffffffffffffffffffffffffffff168152602001600482015f9054906101000a900473ffffffffffffffffffffffffffffffffffffffff1673ffffffffffffffffffffffffffffffffffffffff1673ffffffffffffffffffffffffffffffffffffffff1681526020016004820160149054906101000a900460ff1615151515815250509050919050565b5f8181548110610a18575f80fd5b905f5260205f2090600502015f91509050805f015490806001018054610a3d90611a66565b80601f0160208091040260200160405190810160405280929190818152602001828054610a6990611a66565b8015610ab45780601f10610a8b57610100808354040283529160200191610ab4565b820191905f5260205f20905b815481529060010190602001808311610a9757829003601f168201915b505050505090806002015490806003015f9054906101000a900473ffffffffffffffffffffffffffffffffffffffff1690806004015f9054906101000a900473ffffffffffffffffffffffffffffffffffffffff16908060040160149054906101000a900460ff16905086565b6001602052815f5260405f208181548110610b3a575f80fd5b905f5260205f20015f91509150505481565b60605f60015f3373ffffffffffffffffffffffffffffffffffffffff1673ffffffffffffffffffffffffffffffffffffffff1681526020019081526020015f20805480602002602001604051908101604052809291908181526020018280548015610bd457602002820191905f5260205f20905b815481526020019060010190808311610bc0575b505050505090505f815167ffffffffffffffff811115610bf757610bf661181a565b5b604051908082528060200260200182016040528015610c3057816020015b610c1d611056565b815260200190600190039081610c155790505b5090505f5b8251811015610e1b575f838281518110610c5257610c51611998565b5b602002602001015181548110610c6b57610c6a611998565b5b905f5260205f2090600502016040518060c00160405290815f8201548152602001600182018054610c9b90611a66565b80601f0160208091040260200160405190810160405280929190818152602001828054610cc790611a66565b8015610d125780601f10610ce957610100808354040283529160200191610d12565b820191905f5260205f20905b815481529060010190602001808311610cf557829003601f168201915b5050505050815260200160028201548152602001600382015f9054906101000a900473ffffffffffffffffffffffffffffffffffffffff1673ffffffffffffffffffffffffffffffffffffffff1673ffffffffffffffffffffffffffffffffffffffff168152602001600482015f9054906101000a900473ffffffffffffffffffffffffffffffffffffffff1673ffffffffffffffffffffffffffffffffffffffff1673ffffffffffffffffffffffffffffffffffffffff1681526020016004820160149054906101000a900460ff161515151581525050828281518110610dfd57610dfc611998565b5b60200260200101819052508080610e13906119f2565b915050610c35565b50809250505090565b5f825111610e67576040517f08c379a0000000000000000000000000000000000000000000000000000000008152600401610e5e90611c3f565b60405180910390fd5b5f8111610ea9576040517f08c379a0000000000000000000000000000000000000000000000000000000008152600401610ea090611ca7565b60405180910390fd5b5f6040518060c001604052805f8054905081526020018481526020018381526020013373ffffffffffffffffffffffffffffffffffffffff1681526020015f73ffffffffffffffffffffffffffffffffffffffff1681526020015f1515815250908060018154018082558091505060019003905f5260205f2090600502015f909190919091505f820151815f01556020820151816001019081610f4c9190611e62565b50604082015181600201556060820151816003015f6101000a81548173ffffffffffffffffffffffffffffffffffffffff021916908373ffffffffffffffffffffffffffffffffffffffff1602179055506080820151816004015f6101000a81548173ffffffffffffffffffffffffffffffffffffffff021916908373ffffffffffffffffffffffffffffffffffffffff16021790555060a08201518160040160146101000a81548160ff02191690831515021790555050507f2e87df3c8f53fb06266ed52023929f5fab9f24130224ef6538b665d9cac8253060015f805490506110379190611f31565b83833360405161104a9493929190611f64565b60405180910390a15050565b6040518060c001604052805f8152602001606081526020015f81526020015f73ffffffffffffffffffffffffffffffffffffffff1681526020015f73ffffffffffffffffffffffffffffffffffffffff1681526020015f151581525090565b5f81519050919050565b5f82825260208201905092915050565b5f819050602082019050919050565b5f819050919050565b6110f0816110de565b82525050565b5f61110183836110e7565b60208301905092915050565b5f602082019050919050565b5f611123826110b5565b61112d81856110bf565b9350611138836110cf565b805f5b8381101561116857815161114f88826110f6565b975061115a8361110d565b92505060018101905061113b565b5085935050505092915050565b5f81519050919050565b5f82825260208201905092915050565b5f819050602082019050919050565b5f81519050919050565b5f82825260208201905092915050565b5f5b838110156111d55780820151818401526020810190506111ba565b5f8484015250505050565b5f601f19601f8301169050919050565b5f6111fa8261119e565b61120481856111a8565b93506112148185602086016111b8565b61121d816111e0565b840191505092915050565b5f61123383836111f0565b905092915050565b5f602082019050919050565b5f61125182611175565b61125b818561117f565b93508360208202850161126d8561118f565b805f5b858110156112a857848403895281516112898582611228565b94506112948361123b565b925060208a01995050600181019050611270565b50829750879550505050505092915050565b5f81519050919050565b5f82825260208201905092915050565b5f819050602082019050919050565b5f73ffffffffffffffffffffffffffffffffffffffff82169050919050565b5f61130c826112e3565b9050919050565b61131c81611302565b82525050565b5f61132d8383611313565b60208301905092915050565b5f602082019050919050565b5f61134f826112ba565b61135981856112c4565b9350611364836112d4565b805f5b8381101561139457815161137b8882611322565b975061138683611339565b925050600181019050611367565b5085935050505092915050565b5f6080820190508181035f8301526113b98187611119565b905081810360208301526113cd8186611247565b905081810360408301526113e18185611119565b905081810360608301526113f58184611345565b905095945050505050565b5f604051905090565b5f80fd5b5f80fd5b61141a816110de565b8114611424575f80fd5b50565b5f8135905061143581611411565b92915050565b5f602082840312156114505761144f611409565b5b5f61145d84828501611427565b91505092915050565b5f611470826112e3565b9050919050565b61148081611466565b82525050565b5f8115159050919050565b61149a81611486565b82525050565b5f60c083015f8301516114b55f8601826110e7565b50602083015184820360208601526114cd82826111f0565b91505060408301516114e260408601826110e7565b5060608301516114f56060860182611477565b5060808301516115086080860182611313565b5060a083015161151b60a0860182611491565b508091505092915050565b5f6020820190508181035f83015261153e81846114a0565b905092915050565b61154f816110de565b82525050565b5f82825260208201905092915050565b5f61156f8261119e565b6115798185611555565b93506115898185602086016111b8565b611592816111e0565b840191505092915050565b6115a681611466565b82525050565b6115b581611302565b82525050565b6115c481611486565b82525050565b5f60c0820190506115dd5f830189611546565b81810360208301526115ef8188611565565b90506115fe6040830187611546565b61160b606083018661159d565b61161860808301856115ac565b61162560a08301846115bb565b979650505050505050565b61163981611302565b8114611643575f80fd5b50565b5f8135905061165481611630565b92915050565b5f80604083850312156116705761166f611409565b5b5f61167d85828601611646565b925050602061168e85828601611427565b9150509250929050565b5f6020820190506116ab5f830184611546565b92915050565b5f81519050919050565b5f82825260208201905092915050565b5f819050602082019050919050565b5f60c083015f8301516116ef5f8601826110e7565b506020830151848203602086015261170782826111f0565b915050604083015161171c60408601826110e7565b50606083015161172f6060860182611477565b5060808301516117426080860182611313565b5060a083015161175560a0860182611491565b508091505092915050565b5f61176b83836116da565b905092915050565b5f602082019050919050565b5f611789826116b1565b61179381856116bb565b9350836020820285016117a5856116cb565b805f5b858110156117e057848403895281516117c18582611760565b94506117cc83611773565b925060208a019950506001810190506117a8565b50829750879550505050505092915050565b5f6020820190508181035f83015261180a818461177f565b905092915050565b5f80fd5b5f80fd5b7f4e487b71000000000000000000000000000000000000000000000000000000005f52604160045260245ffd5b611850826111e0565b810181811067ffffffffffffffff8211171561186f5761186e61181a565b5b80604052505050565b5f611881611400565b905061188d8282611847565b919050565b5f67ffffffffffffffff8211156118ac576118ab61181a565b5b6118b5826111e0565b9050602081019050919050565b828183375f83830152505050565b5f6118e26118dd84611892565b611878565b9050828152602081018484840111156118fe576118fd611816565b5b6119098482856118c2565b509392505050565b5f82601f83011261192557611924611812565b5b81356119358482602086016118d0565b91505092915050565b5f806040838503121561195457611953611409565b5b5f83013567ffffffffffffffff8111156119715761197061140d565b5b61197d85828601611911565b925050602061198e85828601611427565b9150509250929050565b7f4e487b71000000000000000000000000000000000000000000000000000000005f52603260045260245ffd5b7f4e487b71000000000000000000000000000000000000000000000000000000005f52601160045260245ffd5b5f6119fc826110de565b91507fffffffffffffffffffffffffffffffffffffffffffffffffffffffffffffffff8203611a2e57611a2d6119c5565b5b600182019050919050565b7f4e487b71000000000000000000000000000000000000000000000000000000005f52602260045260245ffd5b5f6002820490506001821680611a7d57607f821691505b602082108103611a9057611a8f611a39565b5b50919050565b7f496e76616c69642070726f6475637420494400000000000000000000000000005f82015250565b5f611aca601283611555565b9150611ad582611a96565b602082019050919050565b5f6020820190508181035f830152611af781611abe565b9050919050565b7f50726f6475637420616c726561647920736f6c640000000000000000000000005f82015250565b5f611b32601483611555565b9150611b3d82611afe565b602082019050919050565b5f6020820190508181035f830152611b5f81611b26565b9050919050565b7f496e636f72726563742045544820616d6f756e740000000000000000000000005f82015250565b5f611b9a601483611555565b9150611ba582611b66565b602082019050919050565b5f6020820190508181035f830152611bc781611b8e565b9050919050565b5f604082019050611be15f830185611546565b611bee60208301846115ac565b9392505050565b7f50726f64756374206e616d6520726571756972656400000000000000000000005f82015250565b5f611c29601583611555565b9150611c3482611bf5565b602082019050919050565b5f6020820190508181035f830152611c5681611c1d565b9050919050565b7f5072696365206d7573742062652067726561746572207468616e207a65726f005f82015250565b5f611c91601f83611555565b9150611c9c82611c5d565b602082019050919050565b5f6020820190508181035f830152611cbe81611c85565b9050919050565b5f819050815f5260205f209050919050565b5f6020601f8301049050919050565b5f82821b905092915050565b5f60088302611d217fffffffffffffffffffffffffffffffffffffffffffffffffffffffffffffffff82611ce6565b611d2b8683611ce6565b95508019841693508086168417925050509392505050565b5f819050919050565b5f611d66611d61611d5c846110de565b611d43565b6110de565b9050919050565b5f819050919050565b611d7f83611d4c565b611d93611d8b82611d6d565b848454611cf2565b825550505050565b5f90565b611da7611d9b565b611db2818484611d76565b505050565b5b81811015611dd557611dca5f82611d9f565b600181019050611db8565b5050565b601f821115611e1a57611deb81611cc5565b611df484611cd7565b81016020851015611e03578190505b611e17611e0f85611cd7565b830182611db7565b50505b505050565b5f82821c905092915050565b5f611e3a5f1984600802611e1f565b1980831691505092915050565b5f611e528383611e2b565b9150826002028217905092915050565b611e6b8261119e565b67ffffffffffffffff811115611e8457611e8361181a565b5b611e8e8254611a66565b611e99828285611dd9565b5f60209050601f831160018114611eca575f8415611eb8578287015190505b611ec28582611e47565b865550611f29565b601f198416611ed886611cc5565b5f5b82811015611eff57848901518255600182019150602085019450602081019050611eda565b86831015611f1c5784890151611f18601f891682611e2b565b8355505b6001600288020188555050505b505050505050565b5f611f3b826110de565b9150611f46836110de565b9250828203905081811115611f5e57611f5d6119c5565b5b92915050565b5f608082019050611f775f830187611546565b8181036020830152611f898186611565565b9050611f986040830185611546565b611fa560608301846115ac565b9594505050505056fea26469706673582212204f42eaa76e395c4d5dacc9f587339f9b62e95e833a2763ae3c6753e7171dbdc764736f6c63430008150033",
  "immutableReferences": {},
  "source": "// SPDX-License-Identifier: MIT\r\npragma solidity ^0.8.0;\r\n\r\ncontract Marketplace {\r\n    struct Product {\r\n        uint id;\r\n        string name;\r\n        uint price;\r\n        address payable seller;\r\n        address buyer;\r\n        bool isSold;\r\n    }\r\n\r\n    Product[] public products;\r\n    mapping(address => uint[]) public userPurchases;\r\n\r\n    event ProductCreated(uint id, string name, uint price, address seller);\r\n    event ProductPurchased(uint id, address buyer);\r\n\r\n    // Create a new product\r\n    function createProduct(string memory _name, uint _price) public {\r\n        require(bytes(_name).length > 0, \"Product name required\");\r\n        require(_price > 0, \"Price must be greater than zero\");\r\n\r\n        products.push(Product({\r\n            id: products.length,\r\n            name: _name,\r\n            price: _price,\r\n            seller: payable(msg.sender),\r\n            buyer: address(0),\r\n            isSold: false\r\n        }));\r\n\r\n        emit ProductCreated(products.length - 1, _name, _price, msg.sender);\r\n    }\r\n\r\n    // Purchase a product\r\n    function purchaseProduct(uint _id) public payable {\r\n        require(_id < products.length, \"Invalid product ID\");\r\n        Product storage product = products[_id];\r\n        require(!product.isSold, \"Product already sold\");\r\n        require(msg.value == product.price, \"Incorrect ETH amount\");\r\n\r\n        product.seller.transfer(msg.value);\r\n        product.buyer = msg.sender;\r\n        product.isSold = true;\r\n\r\n        userPurchases[msg.sender].push(_id);\r\n\r\n        emit ProductPurchased(_id, msg.sender);\r\n    }\r\n\r\n    // Get all available (unsold) products\r\n    function getAvailableProducts() public view returns (\r\n        uint[] memory, string[] memory, uint[] memory, address[] memory\r\n    ) {\r\n        uint availableCount = 0;\r\n        for (uint i = 0; i < products.length; i++) {\r\n            if (!products[i].isSold) {\r\n                availableCount++;\r\n            }\r\n        }\r\n\r\n        uint[] memory ids = new uint[](availableCount);\r\n        string[] memory names = new string[](availableCount);\r\n        uint[] memory prices = new uint[](availableCount);\r\n        address[] memory sellers = new address[](availableCount);\r\n\r\n        uint index = 0;\r\n        for (uint i = 0; i < products.length; i++) {\r\n            if (!products[i].isSold) {\r\n                ids[index] = products[i].id;\r\n                names[index] = products[i].name;\r\n                prices[index] = products[i].price;\r\n                sellers[index] = products[i].seller;\r\n                index++;\r\n            }\r\n        }\r\n\r\n        return (ids, names, prices, sellers);\r\n    }\r\n\r\n    // Get products purchased by the caller\r\n    function getMyPurchases() public view returns (Product[] memory) {\r\n        uint[] memory purchaseIds = userPurchases[msg.sender];\r\n        Product[] memory myProducts = new Product[](purchaseIds.length);\r\n\r\n        for (uint i = 0; i < purchaseIds.length; i++) {\r\n            myProducts[i] = products[purchaseIds[i]];\r\n        }\r\n\r\n        return myProducts;\r\n    }\r\n\r\n    // Get a product by its ID\r\n    function getProductById(uint _id) public view returns (Product memory) {\r\n        require(_id < products.length, \"Invalid product ID\");\r\n        return products[_id];\r\n    }\r\n}\r\n",
  "sourcePath": "C:\\Users\\HONOR\\Desktop\\BlockchainProject\\contracts\\Marketplace.sol",
  "compiler": {
    "name": "solc",
    "version": "0.8.21+commit.d9974bed.Emscripten.clang"
  },
  "schemaVersion": "3.4.16",
  "updatedAt": "2025-06-30T07:49:54.491Z",
  "networkType": "ethereum",
  "devdoc": {
    "kind": "dev",
    "methods": {},
    "version": 1
  },
  "userdoc": {
    "kind": "user",
    "methods": {},
    "version": 1
  }
}